:10000000B00A0020152000007920000079200000AF
:100010007920000079200000792000000000000015
:100020000000000000000000000000007920000037
:1000300079200000000000007920000079200000F5
:100040003514000079200000192900004129000022
:100050006D280000C12800007920000079200000F0
:10006000792000007920000079200000792000002C
:10007000792000007920000079200000792000001C
:10008000792000007920000079200000792000000C
:1000900079200000792000007920000079200000FC
:1000A00079200000792000007920000079200000EC
:1000B000391900003909000079200000792000007A
:1000C00080B500AF01220021042002F04DFC012286
:1000D0000121042002F048FC01220221042002F048
:1000E00043FC01220321042002F03EFC01220421F2
:1000F000042002F039FC01220521042002F034FC26
:1001000001220621042002F02FFC012207210420F5
:1001100002F02AFCC046BD4680BDC04680B500AF97
:1001200001220B21012002F01FFCC046BD4680BD0C
:1001300080B500AF03220021002002F015FC03224D
:100140000121002002F010FC03220221002002F015
:100150000BFC03220321002002F006FC03220421F1
:10016000002002F001FC03220521002002F0FCFB2C
:1001700001220C21002002F0F7FB01220D210020BA
:1001800002F0F2FB01220E21002002F0EDFBC0463E
:10019000BD4680BD80B500AF01220E21032002F0D4
:1001A000E3FBC046BD4680BD80B500AF01220421FF
:1001B000022002F0D9FB01220521022002F0D4FB2B
:1001C00001220621022002F0CFFB0122072102209A
:1001D00002F0CAFB01220C21022002F0C5FB012221
:1001E0000D21022002F0C0FB01220E21022002F0AC
:1001F000BBFB01220F21022002F0B6FBC046BD4628
:1002000080BDC04680B582B002AF1E2003F0BAF8B0
:1002100002230093032380220021002000F06CF9C8
:10022000002000F039FAC046BD4680BD80B500AF61
:10023000FFF746FFFFF772FFFFF77AFFFFF7AAFF0E
:10024000FFF7B2FFFFF7DEFFC046BD4680BDC046E8
:1002500080B582B000AF00237B6002E07B68013391
:100260007B607B68034A9342F8DDC046BD4602B01E
:1002700080BDC046E703000080B582B000AFFB1D23
:1002800000221A700BE0FB1D1B78032219000020CE
:1002900002F06AFBFB1D1A78FB1D01321A70FB1D70
:1002A0001B78052BEFD9C046BD4602B080BDC046C5
:1002B00080B582B000AFFB1D00221A700AE0FB1D62
:1002C0001B781900002002F0B9FBFB1D1A78FB1DFA
:1002D00001321A70FB1D1B78052BF0D9C046BD46B4
:1002E00002B080BD80B582B000AF3B0000221A6032
:1002F0003B003B221A703B003D225A703B003E22DD
:100300009A70FB1D00221A7051E0FB1D1A78BB1D6C
:1003100039008A5C1A707B1D00221A701BE0BB1D1D
:100320001B780122134006D07B1D1B78190000208A
:1003300002F0B4FB05E07B1D1B781900002002F0E1
:10034000FBFBBB1DBA1D127852081A707B1D1A7870
:100350007B1D01321A707B1D1B78052BDFD9FFF73F
:1003600077FF0321002002F0C1FB031E04D1FB1D17
:100370001B780133DBB21FE00421002002F0B6FB42
:10038000031E04D1FB1D1B780433DBB214E00521EE
:10039000002002F0ABFB031E04D1FB1D1B780733CA
:1003A000DBB209E0FB1D1A78FB1D01321A70FB1D40
:1003B0001B78022BA9D900231800BD4602B080BDCE
:1003C00080B582B000AF0200FB1D1A70064BFA1D0B
:1003D000127811001F220A40012191400A001A6080
:1003E000C046BD4602B080BD00E100E080B582B0ED
:1003F00000AF0200FB1D1A70074AFB1D1B78190095
:100400001F230B40012199400B0019008023D1507C
:10041000C046BD4602B080BD00E100E0B0B582B08C
:1004200000AF02003960FB1D1A70FB1D1B787F2B8B
:1004300032D92F4CFB1D1B781A000F231340083BA9
:1004400099082B4AFB1D1B7818000F230340083B1B
:100450009B0806339B00D31804331B68FA1D1278DF
:10046000100003220240D200FF2090400200D2433D
:100470001A403B689B01FF201840FB1D1B781D00A4
:1004800003232B40DB00984003001A438B1D9B0085
:10049000E31804331A6027E0164CFB1D1B785BB28F
:1004A0009B081449FA1D127852B29208C032920089
:1004B0005258F91D0978080003210140C900FF20A6
:1004C00088400100C94311403A689201FF20104062
:1004D000FA1D1278150003222A40D2009040020033
:1004E0000A43C0339B001A51C046BD4602B0B0BD9E
:1004F00000ED00E000E100E0B0B582B000AF050023
:100500000C0010001900FB1D2A1C1A70BB1D221CB8
:100510001A707B1D021C1A703B1D0A1C1A70A02346
:10052000DB05DA68802149050A43DA60A023DB0590
:10053000DA6830490A40DA602F4A3B1D1B780321F4
:100540000B40D9B253690320014089000C2083433A
:100550000B435361284A1823FB1819789369FF202D
:1005600001400904254803400B439361224A9368E4
:10057000802149050B439360214A136A01210B43F3
:100580001362FB1D1B78002B05D11D4A136A1D4900
:100590000B40136205E01A4A136A8021C9000B431D
:1005A0001362BB1D1B78002B05D1154A136A0C2161
:1005B0008B43136210E0BB1D1B78012B07D1104A3F
:1005C000136A0C218B4308210B43136204E00C4A8D
:1005D000136A0C210B431362094A7B1D1978536A75
:1005E000FF200140FF2083430B435362C046BD46BA
:1005F00002B0B0BDFFFFFFEF00020050FFFF00FFA1
:1006000000000E40FFFBFFFF80B500AF144A136AE5
:1006100001218B431362134A936813490B40936083
:100620000F4A136A02218B4313621D20FFF7DEFE7F
:100630000B4A936A01218B439362094A936A022110
:100640008B439362064AD36A01218B43D362044AE7
:10065000D36A02218B43D362C046BD4680BDC046EB
:1006600000000E4000020050FFFFFFEF80B582B097
:1006700000AF0200FB1D1A70064AFB1D1978536A71
:10068000FF200140FF2083430B435362C046BD4619
:1006900002B080BD00000E4080B582B000AF020005
:1006A000FB1D1A70114AFB1D1B7803210B40D9B2A8
:1006B000536A0320014009020D4803400B43536273
:1006C000FB1D1B78022B06D1A023DB05DA69012173
:1006D0000A43DA6105E0A023DB05DA6901218A43D8
:1006E000DA61C046BD4602B080BDC04600000E4083
:1006F000FFFCFFFF80B582B000AF0200FB1D1A7047
:10070000FB1D1B78002B05D1074A136A07490B40D4
:10071000136205E0044A136A8021C9000B43136287
:10072000C046BD4602B080BD00000E40FFFBFFFF8B
:1007300080B582B000AF0200FB1D1A70FB1D1B7854
:10074000002B05D10D4A136A0C218B43136210E074
:10075000FB1D1B78012B07D1084A136A0C218B4320
:1007600008210B43136204E0044A136A0C210B4373
:100770001362C046BD4602B080BDC04600000E40B8
:1007800080B582B000AF0200FB1D1A70084AFB1D45
:100790001B7803210B40D9B2536903200140890023
:1007A0000C2083430B435361C046BD4602B080BD5D
:1007B0000002005080B582B000AF0200FB1D1A702D
:1007C000074AFB1D19789369FF2001400904054879
:1007D00003400B439361C046BD4602B080BDC04696
:1007E00000020050FFFF00FF80B582B000AF7860CC
:1007F00039600F4B7A681A600E4B3A681A600E4BDC
:100800000D4A126807218A4301210A431A600B4AE4
:10081000136A02210B43136202211D20FFF7FEFD24
:100820001D20FFF7CDFDC046BD4602B080BDC046CD
:10083000300600203C06002030000E4000000E4034
:1008400080B500AF034A136A02218B431362C0468E
:10085000BD4680BD00000E4080B582B000AF78601C
:1008600039600F4B7A681A600E4B3A685A600E4B2B
:100870000D4A126807218A4302210A431A600B4A73
:10088000936A02210B43936202211D20FFF7C6FDEC
:100890001D20FFF795FDC046BD4602B080BDC04695
:1008A000340600203C06002030000E4000000E40C0
:1008B00080B500AF034A936A02218B439362C0461E
:1008C000BD4680BD00000E4080B582B000AF7860AC
:1008D00039600F4B7A681A600E4B3A689A600E4B7B
:1008E0000D4A126807218A4304210A431A600B4A01
:1008F000D36A02210B43D36202211D20FFF78EFD34
:100900001D20FFF75DFDC046BD4602B080BDC0465C
:10091000380600203C06002030000E4000000E404B
:1009200080B500AF034AD36A02218B43D362C0462D
:10093000BD4680BD00000E4080B500AF264B1B6B4E
:10094000DB07DB0FDBB2012B11D1244B1B68002B23
:1009500005D0224B1A68224B1B6818009047214B88
:10096000204A126807218A4301210A431A601A4B60
:100970001B6B9B07DB0FDBB2012B11D11A4B1B68E2
:10098000002B05D0184B1A68154B5B681800904770
:10099000144B144A126807218A4302210A431A6041
:1009A0000D4B1B6B5B07DB0FDBB2012B11D10F4B28
:1009B0001B68002B05D00D4B1A68094B9B6818006B
:1009C0009047084B074A126807218A4304210A43CB
:1009D0001A60C046BD4680BD00000E4030060020B3
:1009E0003C06002030000E4034060020380600206F
:1009F00080B500AF2E4B5B691B079B0FDBB2002B52
:100A000010D12B4B9B691B021B0EDBB2013319006B
:100A1000284803F083FF03001B21180003F07EFF2A
:100A2000030041E0224B5B691B079B0FDBB2012BEC
:100A300013D101F013F902001D4B9B691B021B0E21
:100A4000DBB201331900100003F068FF03001B2123
:100A5000180003F063FF030026E0154B5B691B07DA
:100A60009B0FDBB2022B13D101F04AF90200104BAD
:100A70009B691B021B0EDBB201331900100003F04F
:100A80004DFF03001721180003F048FF03000BE09F
:100A9000074B9B691B021B0EDBB201331900C823F5
:100AA000180303F03BFF03001800BD4680BDC0469D
:100AB00000020050001BB70080B582B000AF0200FA
:100AC000FB1D1A70134A136A13490B401362114A33
:100AD000136A12490B4013620E4A136A30218B438A
:100AE00013620C4AFB1D1B7803210B40D9B2136A19
:100AF000032001408901C02083430B431362054A50
:100B0000136A802149000B431362C046BD4602B000
:100B100080BDC04600000E40FFF7FFFFFFFEFFFF55
:100B200080B500AF034A136A03490B401362C04605
:100B3000BD4680BD00000E40FFFEFFFF80B500AF48
:100B4000084B084A126807218A4301210A431A60A8
:100B5000054A136A802109010B431362C046BD4652
:100B600080BDC04630000E4000000E4080B500AF92
:100B7000034A136A03490B401362C046BD4680BD59
:100B800000000E40FFF7FFFF80B500AF064B1B6B68
:100B9000DB07DB0FDBB2002B01D1002300E00123D8
:100BA0001800BD4680BDC04600000E4080B584B030
:100BB00000AF0200FB1D1A701B4B1B6A5B05DB0FAD
:100BC000DBB2002B08D1184AFB1D1B789B009B58F9
:100BD0009BB21B051B0D23E0134B1B6ADB0FDBB223
:100BE000002B06D1104AFB1D1B789B009B589BB223
:100BF00016E00D49FB1D1A780E23FB18920052587F
:100C00001A800E23FB1800229B5E002B05DA0E23B0
:100C1000FB181B88054A134302E00E23FB181B88B0
:100C20001800BD4604B080BD00000E400000FFFF6C
:100C300080B500AF064A136A02218B431362044A4F
:100C4000136A802189000B431362C046BD4680BDF4
:100C500000000E4080B500AF034A136A03490B4001
:100C60001362C046BD4680BD00000E40FFFDFFFF81
:100C700080B584B000AF0200FB1D1A700823FA187B
:100C8000114B1000190008231A0004F07FF9FB1D16
:100C90001B78072B01D9002311E00C4B1B6B1B04A5
:100CA0001B0EDBB2FA1D1278082179188A5CD2B2C9
:100CB0001340DBB2002B01D0012300E00023180019
:100CC000BD4604B080BDC0460850000000000E4084
:100CD00080B584B000AF0200FB1D1A700823FA181B
:100CE000114B1000190008231A0004F04FF9FB1DE6
:100CF0001B78072B01D9002311E00C4B1B6B1B0247
:100D00001B0EDBB2FA1D1278082179188A5CD2B268
:100D10001340DBB2002B01D0012300E000231800B8
:100D2000BD4604B080BDC0460850000000000E4023
:100D3000B0B582B000AF05000C0010001900FB1D1B
:100D40002A1C1A70BB1D221C1A703B1D021C1A8023
:100D5000FB1C0A1C1A70FB1D1B78072B01D9284BA2
:100D60004AE03B1D1B88274A934201D9244B43E0AC
:100D7000FB1C1B780F2B01D9214B3DE0224AFB1DA8
:100D80001B7807210B40D9B2936A07200140C900A4
:100D9000382083430B4393621B4ABB1D1B78012100
:100DA0000B40D9B2936A012001408900042083439B
:100DB0000B439362144A3B1D1B881B051B0D99B204
:100DC000936A0905090D0904104803400B43936217
:100DD0000D4AFB1C1B780F210B40D9B2936A0F20E0
:100DE000014009020A4803400B439362064A936A92
:100DF00001210B43936200231800BD4602B0B0BD31
:100E00000181FFFFFF0F000000000E40FFFF00F018
:100E1000FFF0FFFF80B500AF034A936A01218B43C7
:100E20009362C046BD4680BD00000E40B0B582B0A2
:100E300000AF05000C0010001900FB1D2A1C1A70E1
:100E4000BB1D221C1A703B1D021C1A80FB1C0A1CB5
:100E50001A70FB1D1B78072B01D9284B4AE03B1D5C
:100E60001B88274A934201D9244B43E0FB1C1B7883
:100E70000F2B01D9214B3DE0224AFB1D1B78072196
:100E80000B40D9B2D36A07200140C9003820834300
:100E90000B43D3621B4ABB1D1B7801210B40D9B207
:100EA000D36A012001408900042083430B43D362AD
:100EB000144A3B1D1B881B051B0D99B2D36A0905FB
:100EC000090D0904104803400B43D3620D4AFB1C73
:100ED0001B780F210B40D9B2D36A0F2001400902C1
:100EE0000A4803400B43D362064AD36A01210B43ED
:100EF000D36200231800BD4602B0B0BD0181FFFFE0
:100F0000FF0F000000000E40FFFF00F0FFF0FFFFAA
:100F100080B500AF034AD36A01218B43D362C04638
:100F2000BD4680BD00000E4080B500AF034A536B44
:100F300001210B435363C046BD4680BD00000E40F7
:100F400080B500AF064B5B6B9B07DB0FDBB2012B61
:100F500001D1012300E000231800BD4680BDC0463A
:100F600000000E4080B500AF034A536B01218B4354
:100F70005363C046BD4680BD00000E4080B582B0C0
:100F800000AF0200FB1D1A70074AFB1D1B780121F0
:100F90000B40D9B2136AC9075B005B080B431362AD
:100FA000C046BD4602B080BD00000E4080B500AF17
:100FB000014B1800BD4680BD0203010080B582B020
:100FC00000AF0200FB1D1A70064BFA1D12781100CB
:100FD0001F220A40012191400A001A60C046BD4606
:100FE00002B080BD00E100E080B582B000AF020039
:100FF000FB1D1A70074AFB1D1B7819001F230B40AD
:10100000012199400B0019008023D150C046BD46F4
:1010100002B080BD00E100E0B0B582B000AF0200D8
:101020003960FB1D1A70FB1D1B787F2B32D92F4CAA
:10103000FB1D1B781A000F231340083B99082B4A0D
:10104000FB1D1B7818000F230340083B9B08063349
:101050009B00D31804331B68FA1D1278100003227A
:101060000240D200FF2090400200D2431A403B6869
:101070009B01FF201840FB1D1B781D0003232B4004
:10108000DB00984003001A438B1D9B00E3180433D8
:101090001A6027E0164CFB1D1B785BB29B081449B5
:1010A000FA1D127852B29208C03292005258F91DBD
:1010B0000978080003210140C900FF208840010091
:1010C000C94311403A689201FF201040FA1D12787E
:1010D000150003222A40D200904002000A43C03388
:1010E0009B001A51C046BD4602B0B0BD00ED00E005
:1010F00000E100E080B500AF014B1800BD4680BDA7
:101100000302010080B500AFA023DB051B681800B7
:10111000BD4680BD80B582B000AFA023DA05802334
:101120005B005921D150A023DA0580235B001621F2
:10113000D150A023DA0580235B008821D150A02361
:10114000DA0580235B00D358012213407B607B6863
:10115000002B01D0002300E0024B1800BD4602B076
:1011600080BDC0460196FFFF80B582B000AFA023CE
:10117000DA0580235B000021D150A023DA0580230B
:101180005B00D358012213407B607B68002B01D0A9
:10119000034B00E000231800BD4602B080BDC046EE
:1011A0000296FFFF80B500AFA023DA0580235B0025
:1011B000D3581A00012313401800BD4680BDC04615
:1011C00080B500AF024B1B681800BD4680BDC0460D
:1011D0000400005080B582B000AF7860034B7A689D
:1011E0001A6000231800BD4602B080BD0400005004
:1011F00080B584B000AF0200FB1D1A70FB1D1B7888
:10120000202B0CD1A023DB059A6804210A439A60A5
:10121000A023DB059A6804218A439A6028E0FB1D1D
:101220001B78212B0CD1A023DB059A6808210A43E7
:101230009A60A023DB059A6808218A439A6017E028
:101240000D4B1B68FB600C4BFA1D1278012191407D
:101250000A001100FA680A431A60074BFA1D127857
:10126000012191400A00D2431100FA680A401A6035
:10127000C046BD4604B080BD0C00005080B500AF34
:10128000A023DB059A6802210A439A60C046BD4646
:1012900080BDC04680B500AFA023DB059A68012160
:1012A0000A439A60C046BD4680BDC04680B582B044
:1012B00000AF0200FB1D1A70A023DB05FA1D127897
:1012C00003210A40D1B29A69032001404900062057
:1012D00082430A439A61C046BD4602B080BDC04603
:1012E00080B584B000AFF860B9607A60A023DB05F8
:1012F000FA68D2B2111C01220A40D1B29A690120C7
:101300000140012082430A439A61FB68002B20D0F0
:10131000A023DB05BA68D2B2111C01220A40D1B267
:101320009A6901200140C900082082430A439A615A
:10133000BB68002B03D00020FFF756FE09E0074BE7
:101340007A681A6002210020FFF766FE0020FFF78E
:1013500035FEC046BD4604B080BDC04648060020EC
:1013600080B500AFA023DB059A6920210A439A616A
:10137000C046BD4680BDC04680B500AFA023DB059A
:101380009A6920218A439A61C046BD4680BDC04605
:1013900080B500AFA023DB059B695B06DB0FDBB2EA
:1013A0001800BD4680BDC04680B500AFA023DB0558
:1013B0009A6980210A439A61C046BD4680BDC046F5
:1013C00080B500AFA023DB059A6980218A439A612A
:1013D000C046BD4680BDC04680B500AFA023DB053A
:1013E000DA6901210A43DA61C046BD4680BDC046C4
:1013F00080B500AFA023DB05DA6901218A43DA61F9
:10140000C046BD4680BDC04680B500AFA023DB0509
:1014100000225A62C046BD4680BDC04680B500AFBE
:10142000A023DB05024A5A62C046BD4680BDC046C5
:10143000A55A000080B500AFA023DB059A691021F2
:101440000A439A61044B1B68002B02D0024B1B68B5
:101450009847C046BD4680BD4806002080B584B090
:1014600000AF02003960FB1D1A70FB1D1B78212B99
:101470000FD12C4A3B68DBB2191C01230B40D9B2B7
:101480005368012001404900022083430B4353600D
:1014900043E0FB1D1B78232B0FD1224A3B68DBB2B4
:1014A000191C01230B40D9B2536801200140C90027
:1014B000082083430B4353602FE0FB1D1B78222B36
:1014C0000FD1184A3B68DBB2191C01230B40D9B27B
:1014D0005368012001408900042083430B4353607B
:1014E0001BE0114B1B68FB603B68002B0AD00E4BC6
:1014F000FA1D1278012191400A001100FA680A438E
:101500001A600AE0084BFA1D1278012191400A0086
:10151000D2431100FA680A401A60C046BD4604B0C2
:1015200080BDC046000200500802005080B582B065
:1015300000AF0200FB1D1A70FB1D1B78072B07D89C
:10154000FB1D1B78032B05D9FB1D1B78062B01D82F
:101550000A4B0FE00A4AFB1D1B7807210B40D9B24A
:10156000136907200140072083430B43136101F0F7
:1015700067F800231800BD4602B080BD0396FFFF48
:101580000002005080B582B000AF0200FB1D1A704F
:10159000FB1D1B78072B07D8FB1D1B78032B05D9D8
:1015A000FB1D1B78062B01D80A4B0EE00A4AFB1DD7
:1015B0001B7807210B40D9B2136907200140C900ED
:1015C000382083430B43136100231800BD4602B04B
:1015D00080BDC0460396FFFF0002005080B582B078
:1015E00000AF0200FB1D1A70BB1D0A1C1A70FB1D08
:1015F0001B780C2B00D9C3E09A00654BD3181B68ED
:101600009F46644ABB1D1B7803210B40D9B2D369A6
:101610000320014089000C2083430B43D361B1E0D8
:101620005C4ABB1D1B7803210B40D9B2D369032050
:101630000140032083430B43D361A3E0554ABB1D04
:101640001B7803210B40D9B2D369032001408901E3
:10165000C02083430B43D36194E04E4ABB1D1B78EB
:1016600003210B40D9B2D369032001400901302086
:1016700083430B43D36185E0464ABB1D1B7803219E
:101680000B40D9B2536989079B009B080B435361F8
:1016900078E0404ABB1D1B7803210B40D9B2536947
:1016A0000320014009073C4803400B43536169E0B4
:1016B000384ABB1D1B7803210B40D9B25369032064
:1016C00001400906354803400B4353615AE0314A53
:1016D000BB1D1B7807210B40D9B25369072001407D
:1016E00009052F4803400B4353614BE0294ABB1DBA
:1016F0001B7807210B40D9B2536907200140090428
:10170000284803400B4353613CE0224ABB1D1B7831
:1017100007210B40D9B25369072001400903224831
:1017200003400B4353612DE01A4ABB1D1B78072170
:101730000B40D9B253690720014009021B480340FE
:101740000B4353611EE0134ABB1D1B7803210B4062
:10175000D9B253690320014089000C2083430B4315
:1017600053610FE00B4ABB1D1B7803210B40D9B21C
:10177000536903200140032083430B43536101E07D
:101780000B4B00E000231800BD4602B080BDC046F0
:101790001050000000020050FFFFFFCFFFFFFFFCD2
:1017A000FFFF8FFFFFFFF8FFFF8FFFFFFFF8FFFF37
:1017B0000496FFFF80B582B000AF02003960FB1DC8
:1017C0001A70FB1D1B78002B0BD1284A3B68D9B23D
:1017D0009369FF2001400904254803400B439361AE
:1017E0003EE0FB1D1B78012B0FD1204A3B68DBB28A
:1017F000191C0F230B40D9B293690F200140090235
:101800001C4803400B4393612AE0FB1D1B78022B0D
:101810000FD1164A3B68DBB2191C0F230B40D9B21B
:1018200093690F2001400901F02083430B4393612A
:1018300016E0FB1D1B78032B10D10C4A3B68DBB272
:10184000191C0F230B40D9B293690F2001400F20C0
:1018500083430B43936100F0F3FE01E0064B00E08D
:1018600000231800BD4602B080BDC04600020050F3
:10187000FFFF00FFFFF0FFFF0596FFFF80B582B07E
:1018800000AF02003960FB1D1A70FB1D1B78012B95
:1018900017D002DC002B05D043E0022B21D0032B14
:1018A0002FD03EE0224A3B68DBB2191C01230B40DB
:1018B000D9B2136801200140012083430B43136018
:1018C00031E01B4A3B68DBB2191C01230B40D9B243
:1018D0001368012001404900022083430B43136039
:1018E00021E0134A3B68DBB2191C01230B40D9B23B
:1018F0001368012001408900042083430B431360D7
:1019000011E00B4A3B68DBB2191C01230B40D9B232
:10191000136801200140C900082083430B43136072
:1019200001E0044B00E000231800BD4602B080BD7A
:10193000000200500396FFFF80B500AF074A13680E
:1019400040210B431360064B1B68002B02D0044B55
:101950001B689847C046BD4680BDC0460002005087
:101960004C06002080B584B000AFF860B9607A60A2
:101970001D4AFB68DBB2191C01230B40D9B2136866
:10198000012001404901202083430B431360FB6881
:10199000002B19D0144A7B68DBB2191C01230B40C1
:1019A000D9B21368012001400901102083430B4381
:1019B00013600E4BBA681A6002211C20FFF72CFB43
:1019C0001C20FFF7FBFA0AE0074A136810218B433B
:1019D0001360064B00221A601C20FFF705FBC0466F
:1019E000BD4604B080BDC046000200504C06002039
:1019F00080B582B000AF0200FB1D1A700D4A13685B
:101A000080218B4313600B4AFB1D1B7801210B4087
:101A1000D9B21368012001400902074803400B4373
:101A20001360044A136880210B431360C046BD460F
:101A300002B080BD00020050FFFEFFFF80B582B003
:101A400000AF0200FB1D1A70084AFB1D1B78012124
:101A50000B40D9B2136A01200140C9040448034075
:101A60000B431362C046BD4602B080BD0002005069
:101A7000FFFFF7FF80B582B000AF7860104A7B6847
:101A8000DBB2191C01230B40D9B2136A01200140BB
:101A900089040C4803400B431362094A7B68DBB29C
:101AA000191C01230B40D9B2136A0120014009041B
:101AB000054803400B431362C046BD4602B080BDDB
:101AC00000020050FFFFFBFFFFFFFEFF80B500AFED
:101AD000014B1800BD4680BD001BB70080B588B023
:101AE00000AF02003960FB1D1A70364B3B610023CA
:101AF000FB603B68344A934206D83B68334A9342C2
:101B000002D900237B611DE03B68304A934209D82B
:101B10003B682F4A934205D901237B613B685B00F8
:101B20003B600FE03B682A4A934209D83B68294A48
:101B3000934205D903237B613B689B003B6001E036
:101B4000254B3AE0FB1D1B78002B02D11D4B3B615E
:101B500005E0FB1D1B78012B01D1204B3B613B684D
:101B60001F49180002F0DAFE0300BB613B691C4903
:101B7000180002F0D3FE0300FB61FB690122134051
:101B800010D1BB69012213400CD1FB69022B09D093
:101B9000BB69022B06D0FB695B08FB61BB695B0874
:101BA000BB61EAE77B699A03FB69023B5B021A436C
:101BB000BB69023B1343FB60FB681800BD4608B0DD
:101BC00080BDC046001BB70000C2EB0B00E1F5056D
:101BD00080F0FA023F787D012EC2000000805101A2
:101BE00040420F0080B582B000AF7860184A7B6831
:101BF0009BB2DB05DB0D99B2136AC905C90D5B0AFF
:101C00005B020B431362124A7B685B0ADBB2191C4E
:101C10001F230B40D9B2136A1F20014049020D480F
:101C200003400B4313620A4A7B689B0BDBB2191C0F
:101C300003230B40D9B2136A0320014089030648ED
:101C400003400B431362C046BD4602B080BDC04690
:101C500000020050FFC1FFFFFF3FFFFF90B587B0BC
:101C600000AF00237B613B00214A13CA13C31268F3
:101C70001A60204B1B6A1B03DB0FDBB2012B02D166
:101C80001D4B3B6101E01D4B3B611A4B1B6ADB03A3
:101C9000DB0FDBB2012B02D100237B6122E0154B6D
:101CA0001B6ADB05DB0D9BB202331A003B695A430A
:101CB000104B1B6A9B04DB0EDBB2023319001000D1
:101CC00002F02CFE030018000A4B1B6A1B049B0F3A
:101CD000DBB21A003B009200D358190002F01EFE3E
:101CE00003007B617B691800BD4607B090BDC0460C
:101CF000445000000002005000805101001BB7005A
:101D000080B582B000AF00237B601E4B1B695B0770
:101D10005B0FDBB2002B02D11B4B7B6022E0194B27
:101D20001B695B075B0FDBB2012B03D180231B0216
:101D30007B6017E0134B1B695B075B0FDBB2022B69
:101D400004D1FFF78BFF03007B600BE00D4B1B6999
:101D50005B075B0FDBB2032B02D10C4B7B6001E016
:101D60000B4B7B60074B9B691B071B0FDBB20133DF
:101D70003B603968786802F0D1FD03001800BD4669
:101D800002B080BD00020050001BB7001027000009
:101D90000080510180B586B000AF78601723FB1832
:101DA00000221A707B682E4A934203D87B682D4A22
:101DB000934201D82C4B4FE0FFF7F4F9031E01D1F9
:101DC0002A4B49E02A4B1B6A1B03DB0FDBB2002BBB
:101DD00009D1274A136801210B4313601723FB180D
:101DE00000221A7008E0224A136804210B43136092
:101DF0001723FB1801221A707A681723FB181B7827
:101E000011001800FFF76AFE03003B610023FB602E
:101E100002E0FB680133FB60FB68164A9342F8D985
:101E20003B691800FFF7DEFE114A136A12490B40A6
:101E300013620F4A136A11490B4013620023FB60BF
:101E400002E0FB680133FB60FB680A4A9342F8D961
:101E50000220FFF76BFB00231800BD4606B080BDD3
:101E600080F0FA023F787D010696FFFF0796FFFF9C
:101E7000000200500F270000FFFFFBFFFFFFFEFFE7
:101E800080B582B000AF78600A00FB1C1A70FB1CA2
:101E90001B780F2B01D9154B24E07B68002B0CD04D
:101EA000134AFB1C1B780F210B40D9B2536A0F2039
:101EB00001400F2083430B4353620D4A7B68DBB222
:101EC000191C01230B40D9B2536A012001400901BA
:101ED000102083430B4353627B6819000620FFF7F1
:101EE000BDFA00231800BD4602B080BD0396FFFF77
:101EF0000002005080B500AFA023DB051A69012164
:101F00000A431A61C046BD4680BDC04680B500AFD9
:101F1000A023DB051A6901218A431A61C046BD4628
:101F200080BDC04680B582B000AF78600B4A0C4BD4
:101F30001B6879684B435360084B00229A60074B3B
:101F400005221A60C046054B1A6880235B021340C5
:101F5000F9D0C046BD4602B080BDC04610E000E0EA
:101F60001006002080B584B000AF0200FB1D1A707F
:101F7000FB1D1B78042B27D89A00174BD3181B681E
:101F80009F46164BDB68DB07DB0FDBB2FB601DE017
:101F9000124BDB689B07DB0FDBB2FB6016E00F4BDD
:101FA000DB68DB06DB0FDBB2FB600FE00B4BDB68B3
:101FB0001B07DB0FDBB2FB6008E0084BDB685B074D
:101FC000DB0FDBB2FB6001E0054B00E0FB681800B3
:101FD000BD4604B080BDC046545000000002005011
:101FE0000396FFFF80B500AF034BDB681B06DB0FDA
:101FF000DBB21800BD4680BD0002005080B500AFC6
:10200000034AD36880210B43D360C046BD4680BDE0
:102010000002005080B582B000AF124B7B60124BC3
:102020003B6007E03B681A1D3A607A68111D7960D1
:1020300012681A603A680D4B9A42F3D30C4B3B601E
:1020400004E03B681A1D3A6000221A603A68094BA6
:102050009A42F6D300F068FB02F044FCC046BD464D
:1020600002B080BDFC5400000000002030060020BB
:1020700030060020B006002080B500AFFEE7C04665
:1020800080B584B000AF0200FB1D1A70BB1D0A1C96
:102090001A70BB1D1A780F23FB181D498A5C1A7031
:1020A0000E23FB1800221A7022E00F23FB181B7866
:1020B0000122134007D00E23FB181B7819000420BF
:1020C00000F0ECFC06E00E23FB181B78190004203E
:1020D00000F032FD0F23FB180F22BA1812785208B5
:1020E0001A700E23FB181A780E23FB1801321A708F
:1020F0000E23FB181B78072BD7D9FB1D1B78043345
:102100001900022000F0CAFCC046BD4604B080BDE4
:10211000F005002080B500AF0421022000F00CFD86
:102120000521022000F008FD0621022000F004FD38
:102130000721022000F000FDC046BD4680BDC0461C
:1021400080B582B000AF78600A4B7A6816214A43A6
:102150005A60084B00229A60064B05221A60C0465E
:10216000044B1A6880235B021340F9D0C046BD4679
:1021700002B080BD10E000E080B500AF6F4A936808
:10218000802109020B439360A023DB05DA688021DC
:1021900009020A43DA60A023DB05DA6868490A40CD
:1021A000DA60A023DB05DA6B802149000A43DA6399
:1021B000A023DB05DA6B802189000A43DA63A023C0
:1021C000DB05DA6B802109010A43DA635D4BDB68CA
:1021D0001A68802109010A431A605A4BDB681A68A1
:1021E000F8218A4348210A431A60564BDB681A6873
:1021F00004210A431A60534BDB685A68120C12041C
:1022000003210A435A604F4BDB689A6803218A43D3
:1022100001210A439A604B4BDB68EB221A62494B5F
:10222000DB681A6801210A431A60C046454BDB6827
:102230001B68DB07DB0FDBB2012BF7D0414BDB6800
:102240009A6803218A439A603E4BDB689A680321AF
:102250008A4301210A439A603A4BDB6881221A6261
:10226000384BDB681A6801210A431A60C046354BB7
:10227000DB681B68DB07DB0FDBB2012BF7D0314BD0
:10228000DB68A0221A622F4BDB681A6801210A431F
:102290001A60C0462B4BDB681B68DB07DB0FDBB229
:1022A000012BF7D0274BDB689A6803218A439A6099
:1022B000244BDB689A6803218A4301210A439A6010
:1022C000204BDB68C0221A621E4BDB681A680121B2
:1022D0000A431A60C0461B4BDB681B68DB07DB0F39
:1022E000DBB2012BF7D0174BDB689A6803218A43D6
:1022F0009A60144BDB689A6803218A4301210A43E0
:102300009A60104BDB68AF221A620E4BDB681A68CA
:1023100001210A431A60C0460A4BDB681B68DB07D1
:10232000DB0FDBB2012BF7D0064BDB689A68032189
:102330008A439A60C046BD4680BDC0460002005038
:10234000FF7FFFFFFC05002080B582B000AF0200D8
:10235000FB1D1A70144BDB689A6803218A43012124
:102360000A439A60104BDB68FA1D127880214900FD
:102370000A431A620C4BDB681A6801210A431A608F
:10238000C046094BDB681B68DB07DB0FDBB2012BA8
:10239000F7D0054BDB689A6803218A439A60C046F0
:1023A000BD4602B080BDC046FC05002080B582B0AD
:1023B00000AF0200FB1D1A70BB1D0A1C1A703B4BBC
:1023C000DB689A6803218A4301210A439A60374BEC
:1023D000DB68FA1D1278502149420A43D2B21A62D0
:1023E000324BDB681A6801210A431A60C0462F4B42
:1023F000DB681B68DB07DB0FDBB2012BF7D02B4B55
:10240000DB689A6803218A439A60284BDB689A68E4
:1024100003218A4301210A439A60244BDB68BA1DD9
:1024200012781209D2B211000F220A4010210A4379
:102430001A621E4BDB681A6801210A431A60C04603
:102440001A4BDB681B68DB07DB0FDBB2012BF7D015
:10245000164BDB689A6803218A439A60134BDB684A
:102460009A6803218A4301210A439A600F4BDB6873
:10247000BA1D12780F210A401A620C4BDB681A68E9
:1024800001210A431A60C046084BDB681B68DB0762
:10249000DB0FDBB2012BF7D0044BDB689A6803211A
:1024A0008A439A60C046BD4602B080BDFC0500204C
:1024B00080B500AF01220B21012000F055FA0B215D
:1024C000012000F0EBFAC046BD4680BD90B587B054
:1024D00000AF040008001100FB1D221C1A70BB1D78
:1024E000021C1A707B1D0A1C1A7000237B610023DA
:1024F0003B617B1D1B78203B1B013B6100237B6103
:1025000023E0FB1D1B78DB18D8B2BB1D1B78DB005A
:10251000DBB25B42DAB27B69DBB2D31ADBB27F3B60
:10252000DBB21900FFF742FF3A697B69D2180F232B
:10253000FB1820498A5C1A700F23FB181B781800BF
:10254000FFF702FF7B6901337B617B69072BD8DDD5
:1025500000237B6127E0FB1D1B78DB18DBB2013316
:10256000D8B2BB1D1B78DB00DBB25B42DAB27B6901
:10257000DBB2D31ADBB27F3BDBB21900FFF716FFE9
:102580003A697B69D31808331A000F23FB180949ED
:102590008A5C1A700F23FB181B781800FFF7D4FE13
:1025A0007B6901337B617B69072BD4DDC046BD4667
:1025B00007B090BD0000002080B584B000AF0200DD
:1025C0003960FB1D1A700023FB60FB68D9B23B68C1
:1025D0005A1C3A601A78FB1D1B781800FFF776FF2B
:1025E000FB680133FB60FB680F2B04DC3B681B7846
:1025F000002BEAD100E0C046C046BD4604B080BD15
:1026000080B582B000AF00237B6000210020FFF77F
:10261000CDFE00237B6005E00020FFF795FE7B6880
:1026200001337B607B68054A9342F5DD0F20FFF79D
:102630008BFEC046BD4602B080BDC0461F040000F0
:1026400080B584B000AF304B1B695B075B0FDBB21A
:10265000BB60BB68052B01D90423BB60BB68022BA0
:1026600005D02A4BBA689200D358FB602CE0264B69
:102670001B6A1B049B0FDBB27B607B68012B02D9BA
:102680007B68013B7B60204B1B6A1B03DB0FDBB2CB
:10269000002B01D01E4A00E01E4A1B4B1B6ADB05C3
:1026A000DB0D9BB202335A43174B1B6A9B04DB0EB4
:1026B000DBB202331900100002F030F903001A00F7
:1026C0007B68DA401300FB600F4B9B691B071B0FF5
:1026D000DBB201331900F86802F020F903001A0098
:1026E0000D4B1A600C4B1B680C4A944663440C4912
:1026F000180002F013F903001A000A4B1A60C046D2
:10270000BD4604B080BDC046000200501406002043
:1027100000805101001BB7000C06002020A107001B
:1027200040420F001006002080B500AFC046BD46F5
:1027300080BDC04680B582B000AF0200FB1D1A709C
:10274000064BFA1D127811001F220A400121914008
:102750000A001A60C046BD4602B080BD00E100E03C
:1027600080B582B000AF0200FB1D1A70074AFB1D46
:102770001B7819001F230B40012199400B00190001
:102780008023D150C046BD4602B080BD00E100E0CC
:10279000B0B582B000AF02003960FB1D1A70FB1D9E
:1027A0001B787F2B32D92F4CFB1D1B781A000F236F
:1027B0001340083B99082B4AFB1D1B7818000F2378
:1027C0000340083B9B0806339B00D31804331B6867
:1027D000FA1D1278100003220240D200FF20904020
:1027E0000200D2431A403B689B01FF201840FB1DAA
:1027F0001B781D0003232B40DB00984003001A4385
:102800008B1D9B00E31804331A6027E0164CFB1D58
:102810001B785BB29B081449FA1D127852B29208D9
:10282000C03292005258F91D097808000321014076
:10283000C900FF2088400100C94311403A68920155
:10284000FF201040FA1D1278150003222A40D20002
:10285000904002000A43C0339B001A51C046BD4657
:1028600002B0B0BD00ED00E000E100E080B582B054
:1028700000AF0F4B1B6A7B600E4B1B6A3B603B68D3
:102880000D4A13403B600A4B7A681A62094B3A685A
:102890001A620A4B1B68002B05D0084B1B687A682C
:1028A000396810009847C046BD4602B080BDC0469A
:1028B0000040005040400050FF3FFFFF5006002006
:1028C00080B584B000AF104B1B6AFB600F4B1B6AD6
:1028D000BB600F4B1B6A7B600B4BFA681A620B4B99
:1028E000BA681A620A4B7A681A620A4B1B68002B94
:1028F00005D0084B1B68F868B9687A689847C046E5
:10290000BD4604B080BDC04680400050C04000506D
:10291000004100505406002080B500AF064B8022D5
:10292000D2011A62054B1B68002B02D0034B1B68B7
:102930009847C046BD4680BD404000505806002024
:1029400080B500AF064B802212021A62054B1B684D
:10295000002B02D0034B1B689847C046BD4680BD84
:10296000404000505C06002080B584B000AF396064
:102970001100FB1D021C1A70BB1D0A1C1A703B685B
:10298000002B02DB3B68102B01DD2A4B4EE0FB1DC8
:102990001B789B01284A94466344FB60BB1D1B784F
:1029A000002B07D0BB1D1B78012B03D0BB1D1B7850
:1029B000022B28D1FB68FA681268396849000320A5
:1029C00088400100C9430A401A60BB1D1B78012BD7
:1029D0000AD1FB68FA68126839684900012088400A
:1029E00001000A431A601FE0BB1D1B78022B1BD19C
:1029F000FB68FA68126839684900022088400100C3
:102A00000A431A6010E0BB1D1B78032B0AD1FB6838
:102A1000FA681268396849000320884001000A43B7
:102A20001A6002E0034B01E0C04600231800BD46D7
:102A300004B080BD0189FFFF0040005080B584B024
:102A400000AF02003960FB1D1A703B68002B02DBEF
:102A50003B68102B01DD0E4B16E0FB1D1B789B0124
:102A60000C4A94466344FB60FB68FA681268396854
:102A700049000320884001000A431A60064A13688F
:102A800020218B43136000231800BD4604B080BD95
:102A90000189FFFF004000508041005080B584B0A4
:102AA00000AF02003960FB1D1A703B68002B02DB8F
:102AB0003B68102B01DD0B4B10E0FB1D1B789B01CD
:102AC000094A94466344FB60FB689B6801213A68AD
:102AD00091400A001A43FB689A6000231800BD4623
:102AE00004B080BD0189FFFF0040005080B584B074
:102AF00000AF02003960FB1D1A703B68002B02DB3F
:102B00003B68102B01DD0A4B0EE0FB1D1B789B017F
:102B1000084A94466344FB60FB681A683B68DA40E5
:102B200013001A00012313401800BD4604B080BDF5
:102B30000189FFFF1040005080B584B000AF020053
:102B40003960FB1D1A703B68002B02DB3B68102BC1
:102B500001DD0C4B11E0FB1D1B789B010A4A9446DA
:102B60006344FB60FB689B6801213A6891400A005E
:102B7000D2431A40FB689A6000231800BD4604B097
:102B800080BDC0460189FFFF0040005080B584B081
:102B900000AF02003960FB1D1A70FB1D1B789B0102
:102BA000054A94466344FB603A68FB689A600023D8
:102BB0001800BD4604B080BD0040005080B584B010
:102BC00000AF0200FB1D1A70FB1D1B789B01054A1C
:102BD00094466344FB60FB681B691800BD4604B063
:102BE00080BDC0460040005080B582B000AF0200FA
:102BF0003960FB1D1A703B68002B02DB3B680E2B13
:102C000001DD094B0CE0FB1D1B789B01074A944634
:102C100063441A683B68DA4013001A00012313402A
:102C20001800BD4602B080BD0189FFFF084000507A
:102C300080B582B000AF0200FB1D1A70FB1D1B782F
:102C4000042B01D9064B06E0FB1D1B789B01054AAE
:102C5000944663441B681800BD4602B080BDC04660
:102C60000189FFFF0840005080B584B000AF02002A
:102C70003960FB1D1A70FB1D1B789B01084A9446A6
:102C80006344FB60FB68FA68126801203968884079
:102C900001000A431A6000231800BD4604B080BD3D
:102CA0000C40005080B584B000AF02003960FB1DBD
:102CB0001A70FB1D1B789B01074A94466344FB6016
:102CC000FB681A683B68DA4013001A0001231340BE
:102CD0001800BD4604B080BD0C40005080B584B0E3
:102CE00000AF02003960FB1D1A70FB1D1B789B01B1
:102CF000094A94466344FB60FB68FA681268012045
:102D0000396888400100C9430A401A60002318004E
:102D1000BD4604B080BDC0460C40005090B583B0A5
:102D200000AF02003960FB1D1A70FB1D1B789B0170
:102D3000084A944663441C00FB1D1B78180000F0F1
:102D40000BF802003B681343236000231800BD46C4
:102D500003B090BD0C40005080B582B000AF0200BF
:102D6000FB1D1A70FB1D1B789B01044A94466344AB
:102D70001B681800BD4602B080BDC0460C40005024
:102D800090B583B000AF02003960FB1D1A70FB1DC7
:102D90001B789B01094A944663441C00FB1D1B7869
:102DA0001800FFF7D9FF02003B68DB4313402360A4
:102DB00000231800BD4603B090BDC0460C40005033
:102DC00080B584B000AF02003960FB1D1A70FB1D96
:102DD0001B789B01094A94466344FB60FB68FA68D0
:102DE000126839681031012088400100C9430A4047
:102DF0001A6000231800BD4604B080BD0440005096
:102E000080B584B000AF02003960FB1D1A70FB1D55
:102E10001B789B01094A94466344FB60FB68FA688F
:102E20001268396810310120884001000A431A6095
:102E300000231800BD4604B080BDC04604400050C9
:102E400080B584B000AF02003960FB1D1A70FB1D15
:102E50001B789B010B4A94466344FB60FB68FA684D
:102E6000126801203968884001000A431A60064A46
:102E7000136820210B43136000231800BD4604B0E3
:102E800080BDC046144000508041005080B584B0E1
:102E900000AF02003960FB1D1A70FB1D1B789B01FF
:102EA0000B4A94466344FB60FB68FA681268012091
:102EB000396888400100C9430A401A60054A13680E
:102EC00020218B43136000231800BD4604B080BD51
:102ED000144000508041005080B582B000AF78604F
:102EE0000A00FB1C1A707B680F2B01D9114B1CE0E8
:102EF000114A7B68DBB2191C0F230B40D9B213684F
:102F00000F2001400F2083430B4313600A4AFB1C30
:102F10001B7801210B40D9B213680120014009013F
:102F2000102083430B43136000231800BD4602B0FA
:102F300080BDC0460189FFFF8041005080B500AFD1
:102F4000034B1B681B071B0FDBB21800BD4680BD7F
:102F50008041005090B585B000AF0400396010008A
:102F60001900FB1D221C1A70BB1D021C1A707B1D50
:102F70000A1C1A70BB1D1B78022B05D17B1D1B7808
:102F8000012B01D14A4B8EE0FB1D1B78012B07D191
:102F90003B680E2B02D03B680F2B01D1444B82E0E3
:102FA000FB1D1B789B01434A94466344FB60BB1D99
:102FB0001B78002B0AD1FB68FA6812683968103157
:102FC0000120884001000A431A6023E0BB1D1B78E2
:102FD000012B09D1FB68FA68126801203968884022
:102FE00001000A431A6015E0BB1D1B78022B0FD1AC
:102FF000FB68FA68126801203968884001000A43BA
:10300000396810310120884001000A431A6001E04C
:10301000274B48E0FB1D1B789B01274A94466344DD
:10302000FB607B1D1B78002B0AD1FB68FA681268D5
:103030000120396888400100C9430A401A600FE046
:103040007B1D1B78012B09D1FB68FA6812680120EF
:103050003968884001000A431A6001E0144B22E0FD
:10306000FB1D1B78002B03D0FB1D1B78012B06D109
:1030700002210420FFF78CFB0420FFF75BFBFB1D04
:103080001B78022B07D0FB1D1B78032B03D0FB1DE5
:103090001B78042B06D102210520FFF779FB0520C0
:1030A000FFF748FB00231800BD4605B090BDC046A1
:1030B0000189FFFF1C4000501840005090B585B0BA
:1030C00000AF02003960FB1D1A70FB1D1B789B01CD
:1030D000184A94466344FB60FB68FA681268012052
:1030E000396888403968103101248C40210001433F
:1030F000C9430A401A60FB1D1B78002B03D0FB1D3F
:103100001B78012B02D10420FFF72AFBFB1D1B7843
:10311000022B07D0FB1D1B78032B03D0FB1D1B7854
:10312000042B02D10520FFF71BFB00231800BD462E
:1031300005B090BD1C40005080B582B000AF7860F3
:103140003960054B7A681A60044B3A681A60C046C9
:10315000BD4602B080BDC046500600205406002087
:1031600080B584B000AF3A60FB1D021C1A70BB1D15
:103170000A1C1A70FB1D1B78022B03D1BB1D1B7888
:10318000012B46D0254BFB60FB1D1B78002B07D184
:10319000FB68FA6812688021C9050A431A6015E0C5
:1031A000FB1D1B78012B07D1FB68FA681268802190
:1031B000C9010A431A6009E0FB1D1B78022B05D1E7
:1031C000FB68FA68126816490A431A60154BFB60DF
:1031D000BB1D1B78002B06D1FB68FA6812681249E8
:1031E0000A401A600AE0BB1D1B78012B06D1FB6860
:1031F000FA6812688021C9010A431A600B4B3A68C9
:103200001A6002210220FFF7C3FA0220FFF792FAA8
:1032100000E0C046BD4604B080BDC0465C400050E2
:103220000040004058400050FFBFFFFF58060020FC
:1032300080B582B000AF074B7B607B687A6812680C
:1032400005490A401A600220FFF78AFAC046BD46C7
:1032500002B080BD5C400050FFBFFFBF80B584B0AE
:1032600000AF3A60FB1D021C1A70BB1D0A1C1A70CD
:10327000FB1D1B78022B03D1BB1D1B78012B46D0F5
:10328000254BFB60FB1D1B78002B07D1FB68FA6800
:103290001268802109060A431A6015E0FB1D1B789D
:1032A000012B07D1FB68FA681268802109020A43E2
:1032B0001A6009E0FB1D1B78022B05D1FB68FA6838
:1032C000126816490A431A60154BFB60BB1D1B7838
:1032D000002B06D1FB68FA68126812490A401A608E
:1032E0000AE0BB1D1B78012B06D1FB68FA68126847
:1032F000802109020A431A600B4B3A681A600221C6
:103300000320FFF745FA0320FFF714FA00E0C04658
:10331000BD4604B080BDC0465C40005000800080C7
:1033200058400050FF7FFFFF5C06002080B582B050
:1033300000AF074B7B607B687A68126805490A40DA
:103340001A600320FFF70CFAC046BD4602B080BDEC
:103350005C400050FF7FFF7F80B584B000AF02006B
:10336000FB1D1A70FB1D1B789B01054A94466344A4
:10337000FB60FB681B6A1800BD4604B080BDC046F8
:103380000040005080B584B000AF0200FB1D1A70F1
:10339000FB1D1B783D2B00D925E39A00DA4BD3188F
:1033A0001B689F46D94B00221A60D94B00221A6035
:1033B000D84B00221A60D84B00221A60D74B00224B
:1033C0001A6013E3D24BD24A1268802149010A43A2
:1033D0001A60D34BD24A12688021C9000A431A608E
:1033E000CF4BCF4A1268CF490A401A60FEE2C74B62
:1033F000C64A1268C02189000A431A60F6E2C34B2C
:10340000C24A1268C02109010A431A60C44BC44A67
:103410001268C4490A401A60E8E2BE4BBD4A12680D
:103420000F210A431A60B94BB84A12688021090279
:103430000A431A60BA4BBA4A1268F82189000A4353
:103440001A60D3E2B44BB44A1268C0210A431A602E
:10345000CCE2FB1D1B78062B04D10F23FB180622A0
:103460001A7003E00F23FB180E221A70A94BA94A09
:1034700012680F21791809780320884001000A4357
:103480001A60A74BA64A1268A6490A401A60ADE224
:10349000A04BA04A12680F210A431A60A04BA04A11
:1034A0001268A1490A401A60A0E2994B984A126832
:1034B0008021C9000A431A60994B994A1268012178
:1034C0000A431A6092E2934B924A126830210A43EF
:1034D0001A608BE28F4B8F4A1268F02109010A4370
:1034E0001A608F4B8E4A12688E490A401A607DE23C
:1034F000874B874A1268802189000A431A60884BEB
:10350000874A126802210A431A606FE2814B814A9E
:103510001268C02189010A431A6067E27E4B7E4A25
:1035200012680F210A431A6060E2784B774A1268EA
:1035300080210A431A607A4B794A126804210A43AF
:103540001A60774B764A126876490A401A604DE253
:10355000714B714A126830210A431A6046E26E4B81
:103560006D4A1268F02109010A431A603EE2684B75
:10357000674A12688021C9010A431A60684B684A89
:10358000126808210A431A6030E2634B624A1268EB
:10359000C02189010A431A6028E25E4B5D4A126825
:1035A0000F210A431A6021E25B4B5B4A1268022139
:1035B0000A431A601AE2584B574A126804210A4318
:1035C0001A6013E2564B564A126804218A431A6065
:1035D000534B534A126853490A401A604B4B4B4AAB
:1035E0001268F91D097817390120884001000A4343
:1035F0001A60FBE14A4B4A4A126808218A431A6062
:10360000434B434A1268F91D09781139012088405B
:1036100001000A431A60E9E13D4B3D4A12688021EE
:1036200049000A431A60E1E1394B394A12688021A6
:1036300089000A431A603A4B394A126802218A43C8
:103640001A60D3E1324B324A12688021C9000A4322
:103650001A60334B324A126801218A431A60C5E16D
:103660002B4B2B4A1268802109010A431A602C4B0C
:103670002B4A126810218A431A60B7E1244B244A6E
:103680001268802109020A431A60254B244A1268F5
:10369000802149040A431A60A8E1204B1F4A12689E
:1036A00020210A431A601E4B1D4A1268802189049A
:1036B0000A431A609AE1164B154A126804210A431C
:1036C0001A60174B164A12688021C9040A431A600F
:1036D0008CE10F4B0E4A126808210A431A60104B06
:1036E0000F4A1268802109050A431A607EE1FB1D1A
:1036F0001B78282B1AD9FB1D1B782B2B16D80F23D0
:10370000FB1800221A7015E06850000030000050CD
:1037100034000050380000503C0000504000005081
:1037200050000050FFF7FFFF1FFEFFFF0F23FB18A5
:1037300004221A70FB1D1B78292B03D0FB1D1B785C
:103740002C2B11D1AC4BAC4A12680F217918097897
:103750000F20884001000A431A60A84BA74A12684C
:10376000A7490A401A602FE0FB1D1B782A2B03D0C3
:10377000FB1D1B782D2B0BD19F4B9F4A12680F21ED
:10378000791809780320884001000A431A601BE079
:10379000FB1D1B782B2B04D0FB1D1B782E2B00D080
:1037A00023E1954B944A12680F2179180978023168
:1037B0000320884001000A431A60904B8F4A126828
:1037C0008F490A401A6010E10FE18E4B8D4A126852
:1037D000C02109020A431A6008E1FB1D1B78302B47
:1037E00007D1894B884A1268C02189010A431A60AF
:1037F0000AE0854B844A1268F91D097828390120AE
:10380000884001000A431A607C4B7C4A12687C495C
:103810000A401A60EAE0FB1D1B78312B13D17A4B6A
:10382000794A1268C02109020A431A60734B734A2D
:10383000126876490A401A60704B704A12687049E3
:103840000A401A60D2E0704B6F4A1268F91D09787D
:1038500028390120884001000A431A60FB1D1B78AB
:10386000362B06D1654B654A126865490A401A60D5
:10387000BCE0624B614A126864490A401A60B5E0D4
:10388000FB1D1B78322B13D15B4B5B4A12688021E6
:1038900009010A431A60594B584A126810210A4319
:1038A0001A605B4B5A4A126820210A431A609DE055
:1038B000FB1D1B78382B0DD14F4B4F4A12688021CE
:1038C00009010A431A604D4B4C4A126810210A4301
:1038D0001A608BE04E4B4E4A126820210A431A6050
:1038E00084E0FB1D1B78332B06D1494B484A1268F4
:1038F00003210A431A6079E0FB1D1B783A2B06D19D
:10390000434B434A126801210A431A606EE0404B60
:103910003F4A126802210A431A6067E0364B364A72
:1039200012680C210A431A60344B344A1268C021D1
:10393000C9010A431A60344B334A126835490A43B5
:103940001A602E4B2D4A1268FF2109040A431A609F
:10395000FB1D1B783C2B17D1274B274A12680C21E3
:103960008A431A60254B254A12682B490A401A607F
:10397000254B254A126829490A401A601F4B1F4AE5
:10398000126827490A401A601C4B1C4A1268C02161
:1039900049010A431A60234B224A126880214900D8
:1039A0000A431A60184B184A1268C02109010A43D9
:1039B0001A60114B104A1268C0210A431A60124B58
:1039C000114A1268C0210A431A60164B154A126840
:1039D00015490A431A60084B074A1268C021890139
:1039E0000A431A6002E0114B01E0C04600231800B0
:1039F000BD4604B080BDC0463400005050000050A9
:103A0000FFF7FFFF3C00005030000050FFFDFFFFBC
:103A1000400000503E700000FF9FFFFFC18FFFFF7E
:103A2000FFFF00FF38000050C0C000000189FFFF09
:103A300080B500AF014B1800BD4680BD05040100F4
:103A400080B582B000AF7860094B00221A6004E0B4
:103A5000074B1B685A1C064B1A607B68054A5A4381
:103A6000034B1B689A42F3D8C046BD4602B080BDE6
:103A70009806002020A1070080B500AFFEF7C0FD2A
:103A8000334B19000020FEF797FD314B1900012040
:103A9000FEF792FD2E4B19000220FEF78DFD2C4BF8
:103AA00019000320FEF788FD0C210020FEF7F6FF29
:103AB0000E210020FEF7F2FF08210020FEF7E0FAB9
:103AC00008210120FEF7DCFA08210220FEF7D8FACF
:103AD00008210320FEF7D4FA0E210020FFF72CF86E
:103AE0000B210120FFF728F80C210220FFF724F812
:103AF0000D210220FFF720F80E210220FFF71CF80D
:103B00000F210220FFF718F8124B1800FEF70AFAEF
:103B1000FEF700FB0E210020FEF7C0FF0B21012065
:103B2000FEF7BCFF0C210220FEF7B8FF0D2102209A
:103B3000FEF7B4FF0E210220FEF7B0FF0F21022096
:103B4000FEF7ACFF034B1800FEF7ECF9B4E7C046F4
:103B50006051000050C3000080B500AFFEF750FD7B
:103B6000334B19000020FEF727FD0120FFF768FF07
:103B7000304B19000120FEF71FFD0320FFF760FF07
:103B8000FEF73EFD2C4B19000120FEF715FD2B4BD7
:103B900019000220FEF710FD16E0294B64221A607E
:103BA0000DE0FCF79FFB031E04D0254B1A68254B44
:103BB0001A6009E0224B1B685A1C214B1A60204BEB
:103BC0001B68214A9342ECD91E4B1B68002BE4D0A2
:103BD000FEF716FD1D4B19000020FEF7EDFC1C4BF7
:103BE00019000120FEF7E8FC1A4B19000220FEF72D
:103BF000E3FC0520FFF724FFFEF702FD164B19003A
:103C00000020FEF7D9FC154B19000120FEF7D4FC6B
:103C1000134B19000220FEF7CFFC124B19000320B2
:103C2000FEF7CAFC0520FFF70BFFC046BD4680BD6E
:103C3000705100007C5100008C5100009C5100002C
:103C4000980600207C060020EF0F0000AC51000019
:103C5000BC510000D0510000E0510000F0510000C4
:103C6000005200001052000080B500AF544B1A689B
:103C7000544B1B68D31A1A00534B1A60524B1B68E3
:103C8000002B04DA504B1B685A424F4B1A604E4BC4
:103C90001B680A2B3FDC4D4B19000320FEF78CFC00
:103CA0000C210220FEF748FF0D210220FEF744FF01
:103CB0000E210220FEF740FF0F210220FEF73CFFFD
:103CC0000C210020FEF738FF414B1800FEF72AF9BF
:103CD000404B19000320FEF76FFC0C210220FEF779
:103CE000DDFE0D210220FEF7D9FE0E210220FEF797
:103CF000D5FE0F210220FEF7D1FE0C210020FEF799
:103D0000CDFE334B1800FEF70DF9334B1B685A1CE0
:103D1000314B1A6051E02C4B1B68322B20DC0C21FC
:103D20000220FEF709FF0D210220FEF705FF0E21FC
:103D30000220FEF701FF264B1800FEF7F3F80C21D6
:103D40000220FEF7ABFE0D210220FEF7A7FE0E219A
:103D50000220FEF7A3FE1E4B1800FEF7E3F82CE04E
:103D6000194B1B68642B18DC0C210220FEF7E4FEC3
:103D70000D210220FEF7E0FE154B1800FEF7D2F8E9
:103D80000C210220FEF78AFE0D210220FEF786FE9E
:103D90000F4B1800FEF7C6F80FE00C210220FEF7CB
:103DA000CBFE0B4B1800FEF7BDF80C210220FEF7EE
:103DB00075FE074B1800FEF7B5F8C046BD4680BD3E
:103DC0009C0600207C060020940600202052000063
:103DD00050C300002C5200006006002080B500AFE8
:103DE000FEF70EFC134B19000020FEF7E5FB0D213A
:103DF0000020FEF7A1FE0B210120FEF79DFE012011
:103E0000FFF71EFE0D210020FEF748FE0B210120CA
:103E1000FEF744FEFEF7F4FB0120FFF711FE064B10
:103E200000221A60054B00221A6000F045FAC046D5
:103E3000BD4680BD30520000600600207C06002098
:103E400080B500AFFFF788FEFEF7DAFB3F4B1900A5
:103E50000020FEF7B1FB3E4B19000120FEF7ACFB42
:103E60003C4B19000220FEF7A7FBFCF767FE07207A
:103E7000FCF79CFE03001A00374B1A60364B1A6899
:103E8000FA239900100000F049FD0300DBB2303343
:103E9000DBB21A0007210220FEF718FB2E4B1A682E
:103EA000FA239900100000F0BFFD0B0064211800F8
:103EB00000F034FD0300DBB23033DBB21A0008211E
:103EC0000220FEF703FB244B1B686421180000F05E
:103ED000ABFD0B000A21180000F020FD0300DBB24F
:103EE0003033DBB21A0009210220FEF7EFFA1A4B39
:103EF0001B680A21180000F097FD0B00DBB230337D
:103F0000DBB21A000A210220FEF7E0FA124B1B680E
:103F1000180000F0DFFF031C8B21C905181C00F0FE
:103F200089FD031C0D49181C00F09EFE031C181C83
:103F300000F0AEFF02000A4B1A60FFF795FE094B36
:103F40001B68192B80D9FFF749FF7DE7405200001D
:103F5000505200005C5200009C06002000404E457C
:103F6000800600206006002080B500AFFEF748FB09
:103F70001D4B19000020FEF71FFB0120FFF760FD1D
:103F80001A4B19000120FEF717FB0320FFF758FD1D
:103F9000FEF736FB164B19000120FEF70DFB154B03
:103FA00019000220FEF708FB17E0134B134A1A60B2
:103FB0000EE0FCF797F9031E04D00F4B1A68104B64
:103FC0001A600AE00C4B1B6821331A000A4B1A6076
:103FD000094B1B680B4A9342EBD9094B1B68002B1A
:103FE000E3D0C046BD4680BD645200007052000060
:103FF0008C5100009C5100009806002057040000DE
:10400000640600200E27000080B500AF284B1A6818
:10401000FA239900100000F081FC03001A00254BE0
:104020001A60244B1B68002B02D1224B01221A601C
:104030001F4B1B686421180000F070FC03000A216C
:10404000180000F0F1FC0B001A001A4B5A60194BD3
:104050005B68002B02D1174B02225A60144B1B687D
:104060000A21180000F05AFC03000A21180000F091
:10407000DBFC0B001A000F4B9A600E4B9B68002B69
:1040800002D10C4B03229A60094B1B680A211800CD
:1040900000F0CAFC0B001A00064BDA60054BDB6827
:1040A000002B02D1034B0422DA60C046BD4680BD1E
:1040B00064060020A006002080B500AFFEF7A0FA3D
:1040C0001F4B19000120FEF777FA1E4B1900022042
:1040D000FEF772FA0420FFF7B3FCFEF791FA1A4BD1
:1040E0001B68DBB23033DBB21A0006210220FEF778
:1040F000EDF9154B5B68DBB23033DBB21A000721F8
:104100000220FEF7E3F9104B9B68DBB23033DBB2E1
:104110001A0008210220FEF7D9F90B4BDB68DBB24D
:104120003033DBB21A0009210220FEF7CFF901205B
:10413000FFF786FCFEF764FAC046BD4680BDC04668
:104140008052000090520000A006002080B500AF11
:1041500041E0244B19000020FEF72EFA224B1B6889
:10416000DBB23133DBB21A0000210120FEF7AEF9D9
:10417000FCF7B8F8031E27D0FCF7B4F803001A00C8
:104180001A4B1A60FDF7C6FF194B1B68DAB2174BC2
:104190001B68DBB219001000FDF772FF124B1A68A2
:1041A000124B1B681900134B9200D1500C210220B6
:1041B000FEF7C2FC0C4B1B685A1C0B4B1A600C4BD5
:1041C0001B685A1E0A4B1A600120FFF739FC0C21AC
:1041D0000220FEF763FC044B1B68032BB9D9C046D1
:1041E000BD4680BDA0520000680600209406002055
:1041F000280600208406002080B500AFFEF700FAF4
:10420000274B00221A6013E0254B1A68254B9200B9
:10421000D258234B1968244B8900CB589A4202D0BC
:10422000224B01221A601E4B1B685A1C1C4B1A6041
:104230001B4B1B68032BE7D91C4B1B68002B0AD0B8
:104240001B4B19000120FEF7B7F90120FFF7F8FB1F
:10425000FFF712FCF0E7174B19000020FEF7ACF94E
:104260000D210020FEF768FC0B210120FEF764FC05
:104270000120FFF7E5FB0C210020FEF70FFC0D21CC
:104280000020FEF70BFC0E210020FEF707FC0B219F
:104290000120FEF703FCFDF73DFF00F0D9FACBE764
:1042A00098060020A0060020840600206C0600204E
:1042B000B0520000B852000080B500AFFFF754FEC6
:1042C000FFF7A2FEFFF7F8FEFFF740FFFFF794FFAE
:1042D000C046BD4680BDC04680B582B000AF7860A4
:1042E00039607B680122134004D00C210020FEF7C6
:1042F00023FC03E00C210020FEF7D0FB7B685B0869
:104300007B607B680122134004D00D210020FEF762
:1043100013FC03E00D210020FEF7C0FB7B685B0867
:104320007B607B680122134004D00E210020FEF741
:1043300003FC03E00E210020FEF7B0FB3B68002BDE
:1043400013D03B681800FFF77BFB0C210020FEF721
:10435000A5FB0D210020FEF7A1FB0E210020FEF79A
:104360009DFB3B681800FFF76BFBC046BD4602B0E3
:1043700080BDC04680B582B000AF786039603B68D0
:10438000DBB2254A11001800FEF716F97B68072BEF
:104390003DD87B689A00214BD3181B689F463B6829
:1043A000DBB21F4A11001800FEF706F92FE03B6848
:1043B000DBB21C4A11001800FEF7FEF827E03B684C
:1043C000DBB2194A11001800FEF7F6F81FE03B684F
:1043D000DBB2164A11001800FEF7EEF817E03B6852
:1043E000DBB2134A11001800FEF7E6F80FE03B6855
:1043F000DBB2104A11001800FEF7DEF807E03B6858
:10440000DBB20D4A11001800FEF7D6F8C046C046D0
:10441000BD4602B080BDC046C8520000185300001F
:10442000DC520000E4520000EC520000F8520000A0
:1044300000530000085300001053000080B500AF87
:10444000FEF7DEF81D4B19000020FEF7B5F801203D
:10445000FFF7F6FA1A4B19000120FEF7ADF803201A
:10446000FFF7EEFAFEF7CCF8164B19000120FEF725
:10447000A3F8154B19000220FEF79EF816E0134B27
:1044800064221A600DE0FBF72DFF031E04D00F4BD2
:104490001A680F4B1A6009E00C4B1B685A1C0B4B37
:1044A0001A600A4B1B680B4A9342ECD9084B1B68F5
:1044B000002BE4D0C046BD4680BDC0463853000046
:1044C000445300008C5100009C51000098060020CD
:1044D00070060020E703000080B500AF334B1B6877
:1044E0000A21180000F0A0FA0B001A0007231A4056
:1044F0002F4B1A602E4B1B68002B04DC2C4B1B68C7
:104500005A1C2B4B1A602B4B1A68294B1B68D2186C
:10451000284B1A60254B1B680A21180000F0FEF991
:1045200003000A21180000F07FFA0B001A0007238D
:104530001A401F4B1A601E4B1B68002B04DC1C4BDF
:104540001B685A1C1A4B1A60194B1A6813009B00FF
:104550009B185B001A00174B1B68D218154B1A608A
:10456000124B1B686421180000F0D8F903001A00F0
:1045700007231A400E4B1A600D4B1B68002B04DCFE
:104580000B4B1B685A1C0A4B1A60094B1B686422B0
:1045900053431A00074B1B68D218064B1A60044B92
:1045A00000221A60C046BD4680BDC046700600208D
:1045B000940600207406002080B500AFFEF720F8B6
:1045C0001B4B19000120FDF7F7FF1A4B1B686421F4
:1045D000180000F0A3F9030001211800FFF77CFE8A
:1045E000154B19000120FDF7E7FF124B1B680A214C
:1045F000180000F093F903000A21180000F014FAE3
:104600000B0001211800FFF767FE0C4B1900012079
:10461000FDF7D2FF074B1B680A21180000F004FACF
:104620000B0001211800FFF757FEC046BD4680BDB4
:1046300054530000740600205C53000064530000D3
:1046400080B500AF174B1B68022B0ED0032B19D07F
:10465000012B1FD1144B1B68642253431A00134BC8
:104660001B68D218114B1A6014E00F4B1A68130024
:104670009B009B185B001A000C4B1B68D2180B4B5D
:104680001A6007E0094B1A68074B1B68D218074BE2
:104690001A60C046034B1B685A1C024B1A60C04686
:1046A000BD4680BD2C060020940600207806002020
:1046B00080B500AFFDF7A4FF484B19000020FDF7BF
:1046C0007BFF474B19000120FDF776FF0420FFF721
:1046D000B7F9FDF795FF434B19000020FDF76CFF7C
:1046E000414B19000120FDF767FF404B19000220E4
:1046F000FDF762FF3E4B19000320FDF75DFF072029
:10470000FFF79EF9FDF77CFF3A4B19000120FDF7FA
:1047100053FF0120FFF794F9374B01221A60FDF790
:104720006FFF364B19000020FDF746FF4EE0344B7B
:104730001B68DBB23033DBB21A0006210020FDF724
:10474000C5FEFBF7CFFD0300032B08D12A4B1B68E6
:104750005A1C294B1A600C210220FEF7EDF9FBF7D9
:10476000C1FD0300012B05D1FFF76AFF0C210220D8
:10477000FEF7E2F9204B1B68224A134004D5013BA7
:1047800008225242134301331A001B4B1A601A4B82
:104790001B68002B04DC184B1B685A1C164B1A6054
:1047A000154B1B681A00164B1B6819001000FFF709
:1047B000E1FD114B1B6800211800FFF78DFD012062
:1047C000FFF73EF90C210220FEF768F90C4B1B683D
:1047D000032BACD9C046BD4680BDC0466C5300001B
:1047E0007C53000090530000A0530000B45300001D
:1047F000C4530000D453000094060020E853000086
:104800002C0600200700008080B500AFFDF7F8FE01
:104810000E4B19000120FDF7CFFE0C210020FEF702
:104820003DF90E210020FEF739F90B210120FEF79A
:1048300083F90D210020FEF77FF90120FFF700F931
:104840000B210120FEF72AF9FEE7C046F0530000D5
:1048500080B500AFFFF7F2FDFFF73EFEFDF7D0FE9B
:10486000194B19000020FDF7A7FE184B1900012075
:10487000FDF7A2FE164B19000220FDF79DFE052054
:10488000FFF7DEF8FDF7BCFE124B19000120FDF723
:1048900093FE114B19000320FDF78EFE0320FFF756
:1048A000CFF8FFF789FEFFF703FF0C4B1A680C4B9C
:1048B0001B689A4202D1FFF7A7FF01E0FFF7DCF87F
:1048C000C046BD4680BDC046805200000054000076
:1048D000105400001C5400002854000078060020EA
:1048E0007406002080B500AFFBF7A0FCFDF744FC88
:1048F000FDF786FEFBF7C0FC0E210320FEF71CF936
:10490000054B19000120FDF757FE0520FFF798F829
:10491000FFF796FAFCE7C0462C540000002243083B
:104920008B4274D303098B425FD3030A8B4244D377
:10493000030B8B4228D3030C8B420DD3FF220902B9
:1049400012BA030C8B4202D31212090265D0030B78
:104950008B4219D300E0090AC30B8B4201D3CB036E
:10496000C01A5241830B8B4201D38B03C01A5241B0
:10497000430B8B4201D34B03C01A5241030B8B42B2
:1049800001D30B03C01A5241C30A8B4201D3CB029D
:10499000C01A5241830A8B4201D38B02C01A524182
:1049A000430A8B4201D34B02C01A5241030A8B4285
:1049B00001D30B02C01A5241CDD2C3098B4201D39D
:1049C000CB01C01A524183098B4201D38B01C01A1B
:1049D000524143098B4201D34B01C01A5241030992
:1049E0008B4201D30B01C01A5241C3088B4201D341
:1049F000CB00C01A524183088B4201D38B00C01AEE
:104A0000524143088B4201D34B00C01A5241411A14
:104A100000D20146524110467047FFE701B5002021
:104A200000F006F802BDC0460029F7D076E77047CF
:104A30007047C046F0B5564644465F464D46F0B412
:104A400044024600C70F83B08846650A360EBA4650
:104A50003DD0FF2E22D00023EC00802599469B46B6
:104A6000ED0425437F3E43465C025800DB0F640A99
:104A7000000E984636D0FF2830D080230021E40075
:104A8000DB041C437F38301A0190484642460843F5
:104A9000724E800030587A4013008746002D44D172
:104AA00008239946063B9B46DDE70122FF200024B0
:104AB0001A406402C305640AD2071C431443200051
:104AC00003B03CBC90469946A246AB46F0BD002DD3
:104AD00020D104239946033B9B46C4E7002C17D101
:104AE000022102E0002C0AD10121321A01924A4629
:104AF00043460A435A48920082587B40974620001A
:104B000000F026FA431F76309C4040420021BAE76D
:104B10000321B8E7280000F01BFA431F9D40002343
:104B20007630464299469B469DE70C239946093BC1
:104B30009B4698E780240022E403FF20B9E7002485
:104B4000C2468B465A465346022AAED0032A7DD02F
:104B5000012A31D1012200201A400024A9E70122B4
:104B6000101A1B2856DD1A4000200024A1E78023DC
:104B7000DB031D424BD18023DB032B435C02640A21
:104B80003A00FF2095E76D016001854230D2019A1D
:104B90000024013A01921B220127290064006D00C4
:104BA000002901DBA84201D82D1A3C43013A002A12
:104BB000F3D16A1E95412C4301987F300028CEDD49
:104BC000620704D00F222240042A00D004342201BC
:104BD00003D5244A019814408030FE2800DD64E7A4
:104BE0000122A401640AC0B21A4062E72C00A9E7BE
:104BF0002D1A1A220124CFE76B02BCD50024802392
:104C0000DB031C436402640A4246FF2051E71C4256
:104C1000B3D1F4E721002022C140101A8440621E63
:104C200094410C43620704D00F222240042A00D092
:104C30000434620104D5012201201A40002438E71F
:104C40000122A401640A1A40002032E78023DB031A
:104C50001C436402640A5246FF202AE73C540000C9
:104C60007C540000FFFFFFF7F0B557464E4645461F
:104C70004300E0B446028846760A1F0EC40F002F98
:104C800047D0FF2F25D0002380259A469946F6006D
:104C9000ED042E437F3F434642465D02D20F5B0048
:104CA0006D0A1B0E904640D0FF2B39D08022002089
:104CB000ED00D20415437F3BFB1842465746591C72
:104CC00062408C4607430F2F5CD86F49BF00C9591B
:104CD0008F46002E45D108239A46063B9946DAE7CF
:104CE000424602282DD0032800D1C3E0012800D07D
:104CF000A2E0002500260240D4B27602ED05760A35
:104D00002E43E407264330001CBC90469946A24639
:104D1000F0BD002E1AD104239A46033B9946BAE708
:104D20002A00511E8A41901CC6E70120002DC3D0E5
:104D3000280000F00DF9431F76309D4043420020CB
:104D4000BAE70124FF2514400026D6E7300000F022
:104D5000FFF8431F9E400023763047429A4699460B
:104D600099E70C239A46093B994694E7802600244C
:104D7000F603FF25C1E735004846B2E735002200BB
:104D80004846AEE72904090C0800370C3604360CF7
:104D90002C0C7943704367437443060C641836192E
:104DA000B14203D980214902884647440004000CDF
:104DB000310409188D01681E8541890E2943350C7F
:104DC000ED19AD010D43290104D5012369081D40EA
:104DD00063460D4319007F31002925DD680704D0A3
:104DE0000F202840042800D00435280103D5274986
:104DF00080330D401900FE29A3DC0124AD016E0AA9
:104E00001440CDB279E78020C003064207D00542A6
:104E100005D128434602760A4446FF256DE706433E
:104E20007602760AFF2568E70124611A1B2905DD51
:104E300014400025002660E76346CBE72E002023C0
:104E4000CE40591A8D406B1E9D412E43730704D0EE
:104E50000F233340042B00D00436730104D5012402
:104E600001251440002648E70124B601760A1440C3
:104E7000002542E780260124F6032E437602760AB7
:104E80001440FF2539E7C046BC540000FFFFFFF780
:104E90004302590A4300C20F1B0E00207E2B0EDD79
:104EA0009D2B0DDC802000040143952B0BDC96200C
:104EB000C31AD9400B005842002A00D1180070478D
:104EC000034BD018FBE7963B99400B00F3E7C04635
:104ED000FFFFFF7F70B5041E28D000F039F89E2335
:104EE0001B1A962B0ADC9622D21A94406202520AAE
:104EF000D8B25202520AC005104370BD992B18DC7B
:104F00009922D21A9440114A2240610704D00F21FD
:104F10000C40042C00D00432510103D50B4B1A4035
:104F20009F231B1A9201520AD8B2E2E70020002206
:104F3000DFE705222500121AB921D5402200C91A3F
:104F40008A40541EA2412C001443DCE7FFFFFFFB04
:104F50001C2101231B04984201D3000C10391B0AA9
:104F6000984201D3000A08391B09984201D300096D
:104F7000043902A2105C40187047C04604030202C4
:104F800001010101000000000000000070B50F2ABF
:104F900032D90C0004430B00A40731D115000400E2
:104FA000103D2D0901352D0149191E6826605E68E6
:104FB00066609E68A660DE681033E6601034994231
:104FC000F3D10F2345191340032B1BD91C1F0023BA
:104FD000A4080134A400CE58EE5004339C42FAD108
:104FE00003232D1909191A4005D00023CC5CEC5479
:104FF00001339A42FAD170BD0500002AF5D1FAE7D3
:105000000500F2E71A00F8E70102040810204080CA
:105010006417000046170000281700000A17000058
:10502000EC160000CE160000B0160000921600002C
:105030007816000020160000021600005A16000024
:105040003C16000001000000020000000200000009
:1050500004000000821F0000901F00009E1F00003F
:10506000AC1F0000BA1F0000A4330000C4330000CE
:10507000EE330000FE3300001A3400004434000018
:10508000523400005234000090340000AA34000072
:10509000C6340000D4340000F03400000C350000A9
:1050A0001C3500002A350000503500005E35000038
:1050B0006E3500008A3500009A350000A8350000E2
:1050C000B6350000DC350000D0350000D0350000DA
:1050D000D0350000D0350000D0350000D0350000BC
:1050E000C4350000F435000000360000183600001A
:1050F0002836000044360000603600007C36000090
:105100009A360000B6360000D2360000EE360000B7
:10511000EE360000EE360000EE360000EE360000FF
:10512000EE360000CA370000DA37000016380000FB
:1051300080380000E2380000DA370000DA3700007B
:105140001638000016380000803800008038000053
:10515000E2380000E2380000503900001C3900003D
:1051600044444848555555414141525252525200CB
:1051700053746167653A2031000000004841434B99
:10518000205448452053595354454D0054656B6194
:105190006E206B657970616400000000756E747537
:1051A0006B206D656D756C616900000050757461F0
:1051B0007220706F74656E73696F000068696E6746
:1051C0006761206D656E64656B6174690000000045
:1051D0006E696C6169207461726765742E000000ED
:1051E00053656D616B696E2064656B6174000000CE
:1051F00064656E67616E207461726765742C00006F
:1052000073656D616B696E2062616E79616B000020
:105210006E79616C61204C4544206D657261680057
:105220002020202020544148414E00002000000052
:1052300053797374656D20556E6C6F636B65640094
:1052400053797374656D204C6F636B656400000067
:105250004861636B696E672E2E2E00004B6E6F6285
:10526000203D200053746167653A20320000000041
:105270004E756D6265722053657175656E6365006C
:10528000496E6761742075727574616E000000006C
:10529000616E676B6120626572696B7574000000F6
:1052A0004D6173756B6B616E204E6F6D6F72000098
:1052B000474147414C0000004E756D626572204DBC
:1052C0006174636865640000202020202020202075
:1052D000202020202020202000000000426972753C
:1052E0000000000048696A6175000000426972753B
:1052F000204D7564610000004D657261680000001A
:10530000556E6775000000004B756E696E67000092
:1053100050757469680000000E4400009E43000050
:10532000AE430000BE430000CE430000DE43000059
:10533000EE430000FE43000053746167653A20337A
:105340000000000043555420544845205749524519
:10535000000000004B6162656C2031004B616265AA
:105360006C2032004B6162656C203300506F746FAB
:105370006E67206B6162656C00000000736563619D
:1053800072612062657275727574616E0000000052
:1053900047756E616B616E204B65797061640000CA
:1053A00031203A20506F746F6E67206B6162656CBC
:1053B0000000000033203A2047616E746920776155
:1053C000726E6100762020202020202020202020C6
:1053D000760000002020202020474F21212120207E
:1053E00020202020000000004B6162656C2000003E
:1053F000424F4D422044454655534544000000006D
:1054000033207761726E61206B6162656C00000011
:10541000626572696B757421000000005045524846
:105420004154494B414E000076767600444546553E
:1054300053452054484520424F4D4200864B0000C2
:10544000AA4A0000684B0000404B0000684B000077
:10545000344B0000684B0000404B0000AA4A00009B
:10546000AA4A0000344B0000404B0000EC4B000007
:10547000EC4B0000EC4B00006E4B0000AA4A000011
:10548000AA4A0000544B00003E4B0000544B000061
:10549000344B0000544B00003E4B0000AA4A000071
:1054A000AA4A0000344B00003E4B0000EC4B0000C9
:1054B000EC4B0000EC4B0000F84B0000844D00006A
:1054C000E24C0000E24C0000E04C0000764D000091
:1054D000764D00006C4D0000E04C0000764D000061
:1054E0006C4D0000764D0000E04C00007C4D00004B
:0C54F0007C4D00007C4D0000064E0000CA
:1054FC0000000000000000000000000000000000A0
:10550C00F000000000000000CF00000000000000D0
:10551C000000000000000000F00000F0000000009F
:10552C00000000C030C03000C839CF390F0901006D
:10553C00E01010F810106000304142FF4244380077
:10554C00C02010E020E0180001C2310C73884438F0
:10555C0000E01010E00000007885828D70A29E4261
:10556C000000000000000000F0000000000000003F
:10557C00C0300804000000001F6080000000000024
:10558C00040830C0000000000080601F0000000014
:10559C0000000000000000004428FE284400000029
:1055AC000000008000000000080808FF0808080040
:1055BC000000000000000000B070000000000000BF
:1055CC0000000000000000008080808000000000CF
:1055DC000000000000000000C0C00000000000003F
:1055EC000000807000000000E01C030000000000C0
:1055FC00C020101020C000003F408080403F0000C1
:10560C0020F000000000000080FF8000000000007F
:10561C006010101020C00000C0A0908886C100004F
:10562C0020101010E00000008080828344380000BD
:10563C0000008060F000000018161110FF10000030
:10564C0000F010101010000080818181423C00009D
:10565C0080402010101000003F428181423C00002D
:10566C0070101010907000000000E01C030000008F
:10567C00C020101020C00000384582824538000040
:10568C00C020101020C0000083848848241F000014
:10569C000000000000000000C3C300000000000078
:1056AC00C0C0000000000000B0700000000000004E
:1056BC000000000000000000102828444482000074
:1056CC00000000000000000088888888888888888E
:1056DC000000000000000000824444282810000054
:1056EC00E010101020C000000000D80601000000DF
:1056FC00C02010909010A0C03F408F90908F505FB2
:10570C00000080708000000080F08F088FF0800017
:10571C0010F010101020C00080FF828282453800EB
:10572C00C0201010102070003F408080808040000E
:10573C0010F010101060800080FF808080601F00CF
:10574C0010F010101010700080FF82828287E00031
:10575C0010F010101010700080FF82020207000081
:10576C00C0201010207000003F408080847C04001A
:10577C0010F0100010F0100080FF820282FF8000F9
:10578C0010F010000000000080FF800000000000FE
:10579C00000010F0100000004080807F000000002E
:1057AC0010F010805030100080FF830CB0C08000CF
:1057BC0010F010000000000080FF808080C02000EE
:1057CC0010F0800080F0100080FF833C83FF80008D
:1057DC0010F0C00010F0100080FF800F30FF0000B0
:1057EC0080601010106080001F60808080601F003F
:1057FC0010F010101020C00080FF8404040201007F
:10580C00E01804040418E0000718202060988700B2
:10581C0010F010101020C00080FF840C34C28100E6
:10582C00C020101010207000E041828284483000AB
:10583C00301010F010103000000080FF80000000CD
:10584C0010F0100010F01000007F8080807F0000AE
:10585C0010F0100010F0100000011EE01E010000FE
:10586C0010F010C010F01000000FF00FF00F00003F
:10587C00107090009070100080E0990699E0800004
:10588C001070900090701000000083FC83000000EA
:10589C007010101010D03000C0B088868180E000ED
:1058AC00FC04040000000000FF80800000000000E9
:1058BC00708000000000000000031CE000000000ED
:1058CC000404FC00000000008080FF0000000000C9
:1058DC0000000000000000008060180618608000C6
:1058EC0000000000000000008080808080808080AC
:1058FC00000000000000000020604080000000005C
:10590C00000000000000000066918949FE80000044
:10591C0010F0000000000000007F8181423C00007C
:10592C0000000000000000003C4281818142000028
:10593C0000000010F00000003C4281817F800000DC
:10594C0000000000000000003C4A89898A4C0000DD
:10595C000000E010102000000181FF810100000018
:10596C00804040408040000053ACA4A4A340000001
:10597C0010F000000000000080FF0101FE8000001C
:10598C0000B000000000000081FF8000000000005B
:10599C00000080CC000000004080807F00000000F0
:1059AC0010F000000000000080FF9825C38100006B
:1059BC0010F000000000000080FF800000000000DC
:1059CC00000000000000000081FE01FE01FE8000CE
:1059DC00000000000000000081FE0101FE800000BC
:1059EC0000000000000000003C428181423C0000AD
:1059FC00408040408000000080FFA020100F00007D
:105A0C0000804040804000000F1020A0FF8000006C
:105A1C00000000000000000081FF82010100000076
:105A2C000000000000000000E64989919267000028
:105A3C000000C0000000000001017F8181400000D7
:105A4C000000000000000000017F80817F800000CA
:105A5C000000000000000000010739C039070100F8
:105A6C000000000000000000011FE11CE11F01000C
:105A7C00000000000000000081E71818E78100001A
:105A8C0040C0400040C04000808146380601000004
:105A9C000000000000000000C3A1918985C3000034
:105AAC0000F0080000000000027D800000000000F3
:105ABC00F000000000000000FF00000000000000EB
:105ACC0008F0000000000000807D020000000000D3
